S01700004F6E44656D616E64547261666669632E7372656348
S11300000C942A000C94EB000C943C000C943C00DF
S11300100C943C000C943C000C943C000C943C006C
S11300200C943C000C943C000C943C000C943C005C
S11300300C943C000C943C000C943C000C943C004C
S11300400C943C000C943C000C943C000C943C003C
S11300500C943C0011241FBECFE5D8E0DEBFCDBF19
S113006020E0A0E6B0E001C01D92A136B207E1F79E
S11300700E94E4000C946B020C94000060E081E4A4
S11300800E94D80061E081E40E94D80062E081E42B
S11300900E94D80060E082E40E94D80061E082E41B
S11300A00E94D80062E082E40E94D80062E084E406
S11300B00E94D4000E9408020E940C020895CF936B
S11300C0DF93EC0160E081E40E94DC0062E082E402
S11300D00E94DC00BE0188E893E10E944F0260E0C8
S11300E081E40E94E00062E082E40E94E000DF918B
S11300F0CF91089560E082E40E94DC0062E081E434
S11301000E94DC0060E070E088E893E10E944F0206
S113011060E082E40E94E00062E081E40E94E0008A
S113012008950F931F93CF93DF938C01C0E0D0E029
S11301301DC061E081E40E94DC0061E082E40E9471
S1130140DC0060E070E084EF91E00E944F0261E027
S113015081E40E94E00061E082E40E94E00060E04B
S113016070E084EF91E00E944F022196C017D107FE
S113017000F3DF91CF911F910F910895CF93DF93F7
S1130180EC0118820E945F00188285E090E00E94D2
S1130190910018820E947A00188285E090E00E9403
S11301A09100DF91CF91089540E00E94FA000895F4
S11301B041E00E94FA00089541E00E9481010895FF
S11301C040E00E94810108950E943E0080E690E094
S11301D00E94BE00FBCF1F920F920FB60F92112404
S11301E08F9381E0809360008F910F900FBE0F90EA
S11301F01F901895823451F118F4813441F0089518
S1130200833409F442C0843409F45DC00895411173
S11302100FC09AB321E030E002C0220F331F6A9569
S1130220E2F781E0232B09F080E089238ABB08955B
S1130230413009F065C02AB381E090E002C0880F24
S1130240991F6A95E2F7822B8ABB089541110FC06A
S113025097B321E030E002C0220F331F6A95E2F722
S113026081E0232B09F080E0892387BB0895413086
S113027009F046C027B381E090E002C0880F991FBF
S11302806A95E2F7822B87BB089541110FC094B39E
S113029021E030E002C0220F331F6A95E2F781E0CB
S11302A0232B09F080E0892384BB0895413041F574
S11302B024B381E090E002C0880F991F6A95E2F7A9
S11302C0822B84BB089541110FC091B321E030E02B
S11302D002C0220F331F6A95E2F781E0232B09F055
S11302E080E0892381BB0895413051F421B381E03A
S11302F090E002C0880F991F6A95E2F7822B81BBB8
S11303000895823451F118F4813441F0089583340E
S113031009F442C0843409F45DC0089541110FC04A
S11303209BB321E030E002C0220F331F6A95E2F74D
S113033081E0232B09F080E089238BBB08954130B1
S113034009F065C02BB381E090E002C0880F991FCB
S11303506A95E2F7822B8BBB089541110FC098B3C5
S113036021E030E002C0220F331F6A95E2F781E0FA
S1130370232B09F080E0892388BB0895413009F0DC
S113038046C028B381E090E002C0880F991F6A95A7
S1130390E2F7822B88BB089541110FC095B321E089
S11303A030E002C0220F331F6A95E2F781E0232B6D
S11303B009F080E0892385BB0895413041F525B3D8
S11303C081E090E002C0880F991F6A95E2F7822BC2
S11303D085BB089541110FC092B321E030E002C003
S11303E0220F331F6A95E2F781E0232B09F080E0A6
S11303F0892382BB0895413051F422B381E090E017
S113040002C0880F991F6A95E2F7822B82BB089578
S11304108FB780688FBF089585B7836085BF8BB71A
S113042080648BBF089513BE089513BE83B78160A3
S113043083BF089513BE0895CF93DF9300D000D0F7
S1130440CDB7DEB70E94130219821A821B821C8266
S11304500E94150213C082E382BF08B600FEFDCFDE
S113046089819A81AB81BC810196A11DB11D8983CB
S11304709A83AB83BC8388B7816088BF89819A8162
S1130480AB81BC810497A105B1052CF30E941A022B
S11304900F900F900F900F90DF91CF910895EF92EE
S11304A0FF920F931F93CF93DF938C017B01C0E0E6
S11304B0D0E003C00E941C022196C017D10720F48B
S11304C0F70180818823B1F3DF91CF911F910F91C0
S10D04D0FF90EF900895F894FFCF19
S9030000FC
